S012000073696D6F6E5F67616D652E73726563F3
S11300000C9434000C9451000C9451000C94240270
S11300100C9468020C94AC020C9451000C945100A2
S11300200C9451000C9451000C9451000C94510008
S11300300C9451000C9451000C9451000C945100F8
S11300400C9451000C9451000C9451000C945100E8
S11300500C9451000C9451000C9451000C945100D8
S11300600C9451000C94510011241FBECFEFD8E022
S1130070DEBFCDBF11E0A0E0B1E0EAEAF7E002C0E4
S113008005900D92A830B107D9F722E0A8E0B1E0BD
S113009001C01D92A03AB207E1F70E94D0010C946E
S11300A0D3030C9400005A982F982C9841980895E3
S11300B0529A84B1806984B9399A8AB18AB93A98D2
S11300C02598429A8BB188628BB92D9A0895E8E6F7
S11300D0F0E080818460808380818260808380817D
S11300E081608083ECE6F0E0808184608083EDE6CB
S11300F0F0E0808188608083808180628083EBE689
S1130100F0E0808180628083789408955A9A85B162
S1130110806985B9419A83E294EF0197F1F700C0B1
S113012000000E94530083E294EF0197F1F700C0AE
S1130130000008959F92AF92BF92CF92DF92EF9208
S1130140FF920F931F93CF93DF93809105019091BA
S11301500601181619060CF069C00F2EFEE0AF2E2A
S1130160F1E0BF2EF02D0F2EFFE0CF2EF1E0DF2EB9
S1130170F02D0F2EF0E1EF2EF1E0FF2EF02D01E136
S113018011E0C0E0D0E0992493940E946003907839
S113019099231CF401979F6F01969C01803491056B
S11301A04CF4F5019082F6011082F7011082F801F7
S11301B0108228C0AC01405451094034510548F420
S11301C0F5011082F6019082F7011082F801108285
S11301D019C0805891098034910548F4F5011082C2
S11301E0F6011082F7019082F80110820BC0203CC6
S11301F0310544F0F5011082F6011082F7011082F6
S1130200F80190822196F4E0AF0EB11C84E0C80E90
S1130210D11CE4E0EE0EF11C0C5F1F4F8091050130
S113022090910601C817D9070CF4AFCFDF91CF9195
S11302301F910F91FF90EF90DF90CF90BF90AF9000
S11302409F900895EAE7F0E08081806880830895B4
S1130250ECE7F0E08081807F808380818083EAE71F
S1130260F0E0808180648083808186FDFDCF809171
S113027078009091790008950F931F93CF93DF93A3
S113028000919E0210919F0211230CF447C08091AB
S11302900901811143C0E801CC0FDD1FCC0FDD1F24
S11302A0CF5EDE4F05C0249780910901811136C0CD
S11302B0FE0133978081882329F05A9A2F982C982D
S11302C041981BC0FE0132978081882329F05A98F7
S11302D02F9A2C98419811C0FE0131978081882370
S11302E029F05A982F982C9A419807C0888188231E
S11302F021F05A982F982C98419A83E294EF019711
S1130300F1F700C000000E94530083E294EF0197CC
S1130310F1F700C000000150110928F6DF91CF91D8
S11303201F910F9108958091050190910601FC01A0
S1130330EE0FFF1FEE0FFF1FE25FFE4F30910A0129
S11303402081321327C0FC01EE0FFF1FEE0FFF1FA9
S1130350E25FFE4F30910B01218132131DC0FC017D
S1130360EE0FFF1FEE0FFF1FE25FFE4F30910C01F7
S11303702281321313C0FC01EE0FFF1FEE0FFF1F8B
S1130380E25FFE4F81E020910D019381291739F03E
S113039080E0089580E0089580E0089580E0089565
S11303A00E9458000E9467000E9422010E942801B6
S11303B00E9465030E949A0081E0809304011092D8
S11303C09F0210929E021092060110920501C1E054
S11303D034C080919E0290919F0290930601809375
S11303E005010E943C01C093080180910501909190
S11303F006019923BCF080910401882399F02FE32E
S11304008DE093E0215080409040E1F700C000006F
S11304108091050190910601992324F080910401B3
S11304208111EDCF1092090180919E0290919F025B
S1130430019690939F0280939E0280910401811102
S1130440C8CF0E948600F9CF1F920F920FB60F9269
S113045011242F933F934F935F936F937F938F93C5
S11304609F93AF93BF93EF93FF931D9920C021E017
S1130470209309012C9A809105019091060101971E
S1130480909306018093050110920A0110920B01CA
S113049020930C0110920D0183E294EF0197F1F780
S11304A000C000000E949301809304012C98FF91E6
S11304B0EF91BF91AF919F918F917F916F915F91D8
S11304C04F913F912F910F900FBE0F901F90189551
S11304D01F920F920FB60F9211242F933F934F93B5
S11304E05F936F937F938F939F93AF93BF93EF9398
S11304F0FF93329920C021E020930901419A809111
S113050005019091060101979093060180930501DE
S113051010920A0110920B0110920C0120930D010C
S113052083E294EF0197F1F700C000000E94930169
S1130530809304014198FF91EF91BF91AF919F91F6
S11305408F917F916F915F914F913F912F910F9078
S11305500FBE0F901F9018951F920F920FB60F9217
S113056011242F933F934F935F936F937F938F93B4
S11305709F93AF93BF93EF93FF934D9920C021E0D6
S1130580209309012F9A809105019091060101970A
S1130590909306018093050110920A0120930B01A8
S11305A010920C0110920D0183E294EF0197F1F780
S11305B000C000000E949301809304012F984B997E
S11305C020C021E0209309015A9A8091050190915D
S11305D006010197909306018093050120930A0177
S11305E010920B0110920C0110920D0183E294EF12
S11305F00197F1F700C000000E9493018093040169
S11306005A98FF91EF91BF91AF919F918F917F91F4
S11306106F915F914F913F912F910F900FBE0F906B
S11306201F9018958F929F92AF92BF92CF92DF92B4
S1130630EF92FF92CF93DF93EC01688179818A81F5
S11306409B81611571058105910521F464E279EDC1
S11306508BE597E02DE133EF41E050E00E94700319
S113066049015A019B01AC01A7EAB1E40E948F033E
S11306706B017C01ACEEB4EFA50194010E949D03D3
S1130680C60ED71EE81EF91EF7FE06C081E0C81A82
S1130690D108E10880E8F80AC882D982EA82FB829C
S11306A0C6019F77DF91CF91FF90EF90DF90CF90BD
S11306B0BF90AF909F908F9008950E941203089569
S11306C080E091E00E9412030895A0E0B0E08093DE
S11306D0000190930101A0930201B09303010895D6
S11306E0052E97FB1EF400940E94870357FD07D044
S11306F00E94A20307FC03D04EF40C948703509588
S11307004095309521953F4F4F4F5F4F08959095F9
S11307108095709561957F4F8F4F9F4F08950E94EC
S1130720C403A59F900DB49F900DA49F800D911DAF
S113073011240895B7FF0C948F030E948F03821B2A
S1130740930B0895A1E21A2EAA1BBB1BFD010DC039
S1130750AA1FBB1FEE1FFF1FA217B307E407F5076D
S113076020F0A21BB30BE40BF50B661F771F881F49
S1130770991F1A9469F760957095809590959B01DF
S1130780AC01BD01CF010895A29FB001B39FC00188
S1130790A39F700D811D1124911DB29F700D811DA9
S10D07A01124911D0895F894FFCF71
S10B07AA0100000001640000DD
S9030000FC
